:100000000C9435000C945D000C945D000C945D0024
:100010000C945D000C945D000C945D000C9429011F
:100020000C945D000C945D000C945D000C944301F5
:100030000C945D000C945D000C945D000C945D00CC
:100040000C945D000C945D000C945D000C945D00BC
:100050000C945D000C945D000C945D000C945D00AC
:100060000C945D000C945D00520B11241FBECFEF69
:10007000D8E0DEBFCDBF11E0A0E0B1E0EEEBF6E1ED
:1000800002C005900D92A230B107D9F724E0A2E09A
:10009000B1E001C01D92A532B207E1F710E0C5E35F
:1000A000D0E004C02197FE010E94570BC433D10752
:1000B000C9F70E949D080C945D0B0C940000E82F7A
:1000C000F92F762F760F760F672FF894219138E06D
:1000D00000000000589A221F3A9528F481F400C0CD
:1000E00000C0219138E00000589828F059F400C071
:1000F00000C0219138E061F76A9561F707C000C040
:100100000000F1CF00C000C00000F5CF7894089542
:100110000F936C3008F570E0DB01AA0FBB1FA60F30
:10012000B71FA80FB91F3C91321308C0FD013181E0
:10013000341304C0FD013281301719F031E0FC01A5
:1001400034A32C93FB01EE0FFF1F6E0F7F1FFC01EA
:10015000E60FF71F418302830F910895EF92FF92FC
:100160000F93CF937C015898509AC0E000E020E0B4
:1001700040E06C2FC7010E948800CF5FCC30B1F700
:1001800081E0F70184A3CF910F91FF90EF90089544
:10019000CF93DF9300D0CDB7DEB71A822A812C30FF
:1001A000D8F52A81322F330F230F29832A8130E09B
:1001B0004981FB01E40FF11D4081F901EE0FFF1FA2
:1001C0002E0F3F1FFC01E20FF31F41832A8130E015
:1001D0004981FB01E40FF11D4181F901EE0FFF1F81
:1001E0002E0F3F1FFC01E20FF31F40832A8130E0F6
:1001F0004981FB01E40FF11D4281F901EE0FFF1F60
:100200002E0F3F1FFC01E20FF31F42832A812F5F55
:100210002A832A812C3028F221E0FC0124A30F90AC
:100220000F90DF91CF910895CF93DF93FC0124A12C
:10023000222361F0EC0187E191E00197F1F700C022
:1002400000006CE0CF010E945F001CA2DF91CF9103
:1002500008951F920F920FB60F9211248F938091E1
:1002600003018F5F80930301809103018D3729F48F
:100270001092030181E0809302018F910F900FBED5
:100280000F901F9018951F920F920FB60F92112486
:100290002F933F934F935F936F937F938F939F938E
:1002A000AF93BF93EF93FF9380910A01882339F0B6
:1002B00081E0809354018FE291E00E941401FF914C
:1002C000EF91BF91AF919F918F917F916F915F91CE
:1002D0004F913F912F910F900FBE0F901F90189547
:1002E0002F923F924F925F926F927F928F929F9246
:1002F000AF92BF92CF92DF92EF92FF920F931F9334
:10030000CF93DF93CDB7DEB72F970FB6F894DEBF4C
:100310000FBECDBF10920A0119821A821B821C8265
:100320001092020180910201882309F443C01092C7
:100330000201809107018B33B9F41092070180917B
:1003400000018B3369F410920001809101018B3020
:1003500019F410920101C4C38F5F80930101C0C3DF
:100360008F5F8093000103C08F5F809307013091FE
:100370000001832F90910101292F220F922F990FB5
:10038000990F920F90930901363054F09F5F01C08E
:10039000922F865021E0290F8630D4F790930901DF
:1003A000330F30930801809107018E3118F03F5FC1
:1003B000309308018091040181118AC08091050168
:1003C000811144C09091090180910601981320C0C9
:1003D0008091080198130EC02091070130E0220F90
:1003E000331F892F90E02817390709F485C06DE283
:1003F00072E09FC02091070130E0220F331F892F48
:1004000090E02817390709F47AC069E972E091C0D1
:100410009091080189130DC02091070130E0220F4F
:10042000331F90E02817390709F46CC065E073E0CA
:1004300080C02091070130E0220F331F90E0281781
:10044000390709F462C069EB73E073C09091090148
:1004500080910601981320C08091080198130EC066
:100460002091070130E0220F331F892F90E02817D9
:10047000390709F44DC061E572E05BC020910701C6
:1004800030E0220F331F892F90E02817390709F435
:1004900042C06DEB72E04DC09091080189130CC011
:1004A0002091070130E0220F331F90E02817390711
:1004B000A9F169E273E03DC02091070130E0220F0D
:1004C000331F90E02817390761F16DED73E031C0FB
:1004D0009091080180910601981307C0809109014D
:1004E000981711F16DE473E024C090910901891708
:1004F000F1F061E074E01DC065E571E01AC065EEE1
:1005000071E017C06DE971E014C061E773E011C0DC
:1005100069E771E00EC069E072E00BC061EC71E068
:1005200008C065E973E005C065E772E002C061EEEE
:1005300072E08FE291E00E94C800809104018F5F19
:10054000823019F0809304010CC010920401809154
:1005500005018F5F853019F08093050102C010926C
:10056000050180910601873718F010920601C3C279
:100570008F5F80930601BFC289819A81AB81BC8164
:1005800088169906AA06BB0609F051C18FE291E0D0
:100590000E94140191E09D8382E08D838D812D81E5
:1005A000821B8D839093020180910201882309F4BC
:1005B00043C010920201809107018B33B9F410926D
:1005C0000701809100018B3369F410920001809142
:1005D00001018B3019F410920101ABC28F5F80933F
:1005E0000101A7C28F5F8093000103C08F5F8093DA
:1005F000070130910001832F90910101292F220FD3
:10060000922F990F990F920F90930901363054F061
:100610009F5F01C0922F865021E0290F8630D4F7CA
:1006200090930901330F30930801809107018E31B7
:1006300018F03F5F309308018091040181118AC056
:1006400080910501811144C09091090180910601BA
:10065000981320C08091080198130EC020910701C3
:1006600030E0220F331F892F90E02817390709F453
:1006700085C06DE272E09FC02091070130E0220F3B
:10068000331F892F90E02817390709F47AC069E9E8
:1006900072E091C09091080189130DC0209107016B
:1006A00030E0220F331F90E02817390709F46CC09F
:1006B00065E073E080C02091070130E0220F331F16
:1006C00090E02817390709F462C069EB73E073C042
:1006D0009091090180910601981320C08091080132
:1006E00098130EC02091070130E0220F331F892F8D
:1006F00090E02817390709F44DC061E572E05BC04E
:100700002091070130E0220F331F892F90E0281736
:10071000390709F442C06DEB72E04DC090910801B9
:1007200089130CC02091070130E0220F331F90E0A5
:1007300028173907A9F169E273E03DC0209107014C
:1007400030E0220F331F90E02817390761F16DED7B
:1007500073E031C09091080180910601981307C0A1
:1007600080910901981711F16DE473E024C0909114
:1007700009018917F1F061E074E01DC065E571E0E1
:100780001AC065EE71E017C06DE971E014C061E751
:1007900073E011C069E771E00EC069E072E00BC060
:1007A00061EC71E008C065E973E005C065E772E0DF
:1007B00002C061EE72E08FE291E00E94C800809179
:1007C00004018F5F823019F0809304010CC01092F5
:1007D0000401809105018F5F853019F08093050138
:1007E00002C01092050180910601873718F010921F
:1007F000060103C08F5F8093060189819A81AB81D6
:10080000BC810196A11DB11D89839A83AB83BC83F2
:100810002AE0820E27E0921EA11CB11C84E68816F5
:1008200086E49806A104B10409F0A6CE98C10F2E63
:10083000F9E2CF2EF3E0DF2EF02D0F2EF9E06F2E30
:10084000F2E07F2EF02D0F2EFDEBEF2EF2E0FF2ECB
:10085000F02D0F2EF1E54F2EF2E05F2EF02D01E787
:1008600013E0F89400000000109202018091020150
:10087000882309F442C010920201809107018B3352
:10088000B9F410920701809100018B3369F4109242
:100890000001809101018B3019F41092010154C1C3
:1008A0008F5F8093010150C18F5F8093000103C06F
:1008B0008F5F8093070130910001832F9091010198
:1008C000990F292F220F220F920F90930901363092
:1008D00054F09F5F01C0922F865021E0290F86308F
:1008E000D4F790930901330F3093080180910701E9
:1008F0008E3118F03F5F309308018091040181111F
:1009000087C080910501811144C0909109018091B7
:100910000601981320C08091080198130EC0209101
:10092000070130E0220F331F892F90E02817390785
:1009300009F482C06DE272E09AC02091070130E0B4
:10094000220F331F892F90E02817390709F477C049
:1009500069E972E08CC09091080189130DC0209163
:10096000070130E0220F331F90E02817390709F400
:1009700069C065E073E07BC02091070130E0220F81
:10098000331F90E02817390709F45FC069EB73E063
:100990006EC0909109018091060198131EC080914C
:1009A000080198130DC02091070130E0220F331F7A
:1009B000892F90E02817390709F449C0B20157C0C0
:1009C0002091070130E0220F331F892F90E0281774
:1009D000390709F43FC0B7014AC090910801891353
:1009E0000BC02091070130E0220F331F90E0281741
:1009F000390791F1B6013BC02091070130E0220F89
:100A0000331F90E02817390751F1688579852FC089
:100A10009091080180910601981307C08091090107
:100A2000981701F16E817F8122C090910901891789
:100A3000E1F0632D722D1BC065E571E018C065EE15
:100A400071E015C06DE971E012C0B80110C069E72E
:100A500071E00DC0B3010BC061EC71E008C06E85A0
:100A60007F8505C06C857D8502C06A857B858FE2A8
:100A700091E00E94C800809104018F5F823019F0DC
:100A8000809304010CC010920401809105018F5FD6
:100A9000853019F08093050102C010920501809104
:100AA0000601873718F01092060103C08F5F80930C
:100AB000060189819A81AB81BC810196A11DB11D7E
:100AC00089839A83AB83BC83789489819A81AB8133
:100AD000BC8188159905AA05BB0509F0C2CE56CD83
:100AE00080910101880F982F990F990F890F80939A
:100AF000090130E055CC812C912C540181EE92E01B
:100B00008A879B8781E094E0682E792E85E792E0C2
:100B10008C879D878DE493E08E839F8385E993E0A6
:100B20008E879F878DED93E088879987362C272CB9
:100B300023CD80910101880F982F990F990F890F6C
:100B40008093090130E06ECD80910101880F982FCC
:100B5000990F990F890F8093090130E0C4CE2F9629
:100B60000FB6F894DEBF0FBECDBFDF91CF911F91BE
:100B70000F91FF90EF90DF90CF90BF90AF909F903C
:100B80008F907F906F905F904F903F902F9008953F
:100B9000CF93DF931F92CDB7DEB7E1E0F4E082E2BE
:100BA00094E010821182128233968E179F07C9F744
:100BB00064C210821182128233968E179F07C9F782
:100BC000EDEDF3E08FEF868F878F80A381A382A363
:100BD00083A3E9EBF3E084ED93E0108211821282AB
:100BE0003396E817F907C9F7E9EBF3E08FEF838F46
:100BF000848F858F868F878F80A381A382A383A311
:100C000019828981893040F52FEF898190E0FC01BC
:100C1000EE0FFF1F8E0F9F1FFC01EB56FC4F208332
:100C2000898190E0FC01EE0FFF1F8E0F9F1FFC01DA
:100C3000EB56FC4F1182898190E0FC01EE0FFF1F03
:100C40008E0F9F1FFC01EB56FC4F128289818F5F34
:100C5000898389818930C8F2E5E9F3E0138E148E27
:100C6000158E8FEF868F878F80A381A382A383A3A6
:100C7000E1E7F3E02CE833E08083118212823396BF
:100C80002E173F07C9F7E1E7F3E08FEF838F848FDB
:100C9000858F868F878F80A381A382A383A3EDE4B2
:100CA000F3E022E633E010828183128233962E171E
:100CB0003F07C9F7EDE4F3E0158A168A178A108E0C
:100CC000118E128E138E148E158E168E178E10A204
:100CD0008FEF81A382A383A3E9E2F3E02EE333E065
:100CE0001082818312823396E217F307C9F7E9E293
:100CF000F3E0158A168A178A108E118E128E138EC3
:100D0000148E158E8FEF868F878F80A381A382A389
:100D100083A3E5E0F3E02AE133E0108281831282CD
:100D200033962E173F07C9F7E5E0F3E0158A168AD8
:100D3000178A108E118E128E8FEF838F848F858F7E
:100D4000868F878F80A381A382A383A3E1EEF2E045
:100D500020EF32E0DF011C9211961C92119712963F
:100D60008C9312971396A217B307A9F783EF92E01B
:100D70001786108A118A33968E179F07C9F770C19C
:100D800010821182228333968E179F07C9F71F9610
:100D90001C921F9750961C92509751961C925197F7
:100DA00013968A179B0799F7EDEBF2E08FEF868F8A
:100DB000878F80A381A382A383A3E9E9F2E028EAD5
:100DC00032E01082118282833396E217F307C9F76B
:100DD000E9E9F2E01786108A118A128A138A148AC6
:100DE000158A168A178A108E118E128E8FEF838FB6
:100DF000848F858F868F878F80A381A382A383A30F
:100E0000E5E7F2E024E832E01082818382833396C2
:100E10002E173F07C9F7E5E7F2E017868FEF808BC3
:100E2000118A128A838B148A158A168A178A108E61
:100E3000118E128E138E148E158E168E178E10A292
:100E400081A382A383A3E1E5F2E020E632E01082F1
:100E5000818382833396E217F307C9F7E1E5F2E075
:100E600017868FEF808B118A128A838B148A158ADA
:100E7000168A178A108E118E128E138E148E158E6E
:100E8000868F878F80A381A382A383A3EDE2F2E004
:100E90002CE332E010828183828333962E173F0742
:100EA000C9F7EDE2F2E017868FEF808B118A128A84
:100EB000838B148A158A168A178A108E118E128EC9
:100EC000838F848F858F868F878F80A381A382A352
:100ED00083A3E9E0F2E028E132E08083118282839B
:100EE0003396E217F307C9F7E9E0F2E08FEF87875F
:100EF000108A118A828B138A148A858B168A178A24
:100F0000808F118E128E138E148E158E868F878F82
:100F100080A381A382A383A3E5EEF1E024EF31E077
:100F20008083118282833396E217F307C9F7E5EED7
:100F3000F1E08FEF8787108A118A828B138A148AD7
:100F4000858B168A178A808F118E128E838F848FDD
:100F5000858F868F878F80A381A382A383A3E1ECF3
:100F6000F1E026ED31E08083818312823396E2172F
:100F7000F307C9F7E1ECF1E08FEF858B168A178A4A
:100F8000808F118E128E138E148E158E868F878F02
:100F900080A381A382A383A3EDE9F1E022EB31E0FA
:100FA0008083818312823396E217F307C9F7EDE954
:100FB000F1E08FEF858B168A178A808F118E128E43
:100FC000838F848F858F868F878F80A381A382A351
:100FD00083A3E9E7F1E028E831E08083818382831D
:100FE0003396E217F307C9F7E9E7F1E08FEF878758
:100FF000808B118A828B838B148A858B168A178A41
:10100000808F118E128E138E148E158E868F878F81
:1010100080A381A382A383A3E5E5F1E024E631E088
:101020008083818382833396E217F307C9F7E5E56E
:10103000F1E08FEF8787808B118A828B838B148AF4
:10104000858B168A178A808F118E128E838F848FDC
:10105000858F868F878F80A381A382A383A318C0E7
:10106000E1EEF2E08FEF81A382A383A3ADEBB2E0C8
:101070008CEC92E0FD012FEF83CEE1E0F4E08FEF06
:1010800081A382A383A3EDEDF3E08BEF93E091CDF9
:101090000F90DF91CF9108950E94C80582E0809360
:1010A000B00087E08093B1001092B2008DE780938A
:1010B000B300E0E7F0E080818260808310928000DE
:1010C00089E180938100109285001092840088EB62
:1010D00092E29093870080938600EFE6F0E08081B3
:1010E0008260808359985198599A7894EBE0F1E0A6
:1010F0002FE231E08AE081932E173F07E1F76BE0A2
:1011000071E08FE291E00E94C80081E080930A01C3
:10111000809102018823E1F3109202018091020183
:101120008823E1F31092020110920A016BE071E052
:101130008FE291E00E94C8000895CF93DF931F9241
:10114000CDB7DEB7259A0E944C080E94700181E05D
:1011500080930A01712C0F2EF1EE8F2EF2E09F2E5C
:10116000F02D0F2EF1E0EF2EF4E0FF2EF02D0F2EDC
:10117000FDE4AF2EF3E0BF2EF02D0F2EFDEDCF2EB0
:10118000F3E0DF2EF02D0F2EFDEB2F2EF2E03F2EA1
:10119000F02D0F2EF9E74F2EF1E05F2EF02D04E831
:1011A00010E087E778123FC1F80111821082809128
:1011B0000201882309F442C01092020180910701C4
:1011C0008B33B9F410920701809100018B3369F4DD
:1011D00010920001809101018B3019F410920101ED
:1011E0004BC28F5F8093010147C28F5F80930001E4
:1011F00003C08F5F8093070130910001832F90918E
:101200000101990F292F220F220F920F90930901AC
:10121000363054F09F5F01C0922F865021E0290F95
:101220008630D4F790930901330F309308018091F1
:1012300007018E3118F03F5F30930801809104015F
:10124000811187C080910501811144C090910901ED
:1012500080910601981320C08091080198130EC058
:101260002091070130E0220F331F892F90E02817CB
:10127000390709F480C06DE272E098C0209107013F
:1012800030E0220F331F892F90E02817390709F427
:1012900075C069E972E08AC09091080189130DC098
:1012A0002091070130E0220F331F90E02817390703
:1012B00009F467C065E073E079C02091070130E070
:1012C000220F331F90E02817390709F45DC069EB3E
:1012D00073E06CC0909109018091060198131EC0C3
:1012E0008091080198130EC02091070130E0220F71
:1012F000331F892F90E02817390709F448C061E5AA
:1013000072E054C02091070130E0220F331F892F73
:1013100090E028173907E9F1B10148C09091080120
:1013200089130CC02091070130E0220F331F90E099
:101330002817390789F169E273E038C02091070165
:1013400030E0220F331F90E02817390741F1B60132
:101350002DC09091080180910601981306C08091DC
:1013600009019817F9F0B50121C090910901891779
:10137000E1F0B7011BC065E571E018C065EE71E0F2
:1013800015C06DE971E012C061E773E00FC0B201F2
:101390000DC069E072E00AC061EC71E007C065E968
:1013A00073E004C065E772E001C0B4018FE291E030
:1013B0000E94C800809104018F5F823019F08093F1
:1013C00004010CC010920401809105018F5F8530EB
:1013D00019F08093050102C0109205018091060169
:1013E000873718F01092060103C08F5F80930601C3
:1013F00089B1827089838981882349F0F80111823B
:10140000108289B18270898389818111F7CFF801B7
:101410001182108281E0809354018FE291E00E945A
:101420001401712CBECE80910201882309F442C0C0
:1014300010920201809107018B33B9F410920701D9
:10144000809100018B3369F41092000180910101B9
:101450008B3019F4109201011AC18F5F8093010142
:1014600016C18F5F8093000103C08F5F80930701D7
:1014700030910001832F90910101990F292F220FA4
:10148000220F920F90930901363054F09F5F01C0F4
:10149000922F865021E0290F8630D4F790930901CE
:1014A000330F30930801809107018E3118F03F5FB0
:1014B0003093080180910401811187C0809105015A
:1014C000811144C09091090180910601981320C0B8
:1014D0008091080198130EC02091070130E0220F7F
:1014E000331F892F90E02817390709F480C06DE277
:1014F00072E098C02091070130E0220F331F892F3E
:1015000090E02817390709F475C069E972E08AC0CC
:101510009091080189130DC02091070130E0220F3E
:10152000331F90E02817390709F467C065E073E0BE
:1015300079C02091070130E0220F331F90E0281777
:10154000390709F45DC069EB73E06CC09091090143
:101550008091060198131EC08091080198130EC057
:101560002091070130E0220F331F892F90E02817C8
:10157000390709F448C061E572E054C020910701C1
:1015800030E0220F331F892F90E028173907E9F147
:10159000B10148C09091080189130CC02091070146
:1015A00030E0220F331F90E02817390789F169E2F4
:1015B00073E038C02091070130E0220F331F90E024
:1015C0002817390741F1B6012DC09091080180918B
:1015D0000601981306C0809109019817F9F0B5012A
:1015E00021C0909109018917E1F0B7011BC065E5A1
:1015F00071E018C065EE71E015C06DE971E012C0D0
:1016000061E773E00FC0B2010DC069E072E00AC08B
:1016100061EC71E007C065E973E004C065E772E062
:1016200001C0B4018FE291E00E94C80080910401E2
:101630008F5F823019F0809304010CC01092040176
:10164000809105018F5F853019F08093050102C0FC
:101650001092050180910601873718F0109206015B
:1016600003C08F5F80930601809154018823E1F3CA
:1016700010925401739495CD80910101880F982F99
:10168000990F990F890F8093090130E0CDCD80919A
:101690000101880F982F990F990F890F80930901E5
:1016A00030E0FECE8FE291E00E94AE000895EE0F92
:0E16B000FF1F0590F491E02D0994F894FFCFF0
:0216BE00140A0C
:00000001FF
